:020000020000FC
:100000000C94A90118951895189518951895189598
:100010001895189518951895189518951895189578
:100020001895189518951895189518950C943700EB
:100030001895189518951895189518951895189558
:100040001895189518951895189518951895189548
:100050001895189518951895189518951895189538
:1000600018951895189518952400000100008A939A
:10007000FA93EA933A922A921A920A927A936A939C
:100080005A934A933A932A931A930A938FB7B09844
:100090000E949C008FBF0991199129913991499132
:1000A0005991699179910990199029903990E99124
:1000B000F9918991189504B1006304B9089500E29B
:1000C00015B1102715B900E0089500E115B110270A
:1000D00015B900E008950E948200EDDF4FE550E081
:1000E00021E008E813E10E94750145E650E022E0B6
:1000F00008EE13E00E94750100916F00026000930A
:100100006F00FFCFF894009180000C7F0093800077
:10011000009181000F7E00938100009181000960B1
:10012000009381000FE0009389000FE9009388009D
:100130007894089500E008958A9380E0009100018A
:10014000002309F4C5C080E000910001801708F089
:10015000CAC0082F10E0000F111FF801EF5FFE4F1B
:10016000008111810F5F1F4F00831183082F10E062
:10017000000F111FF801EF5FFE4F20813181482FE2
:1001800050E005E010E00E94BB01F801E55FFE4F82
:10019000018112812017310708F498C000E010E0B7
:1001A000282F30E0220F331FF901EF5FFE4F00834D
:1001B0001183482F50E005E010E00E94BB01F801D8
:1001C000E55FFE4F03811481F8010995482F50E047
:1001D00005E010E00E94BB01F801E55FFE4F0081E1
:1001E000013009F073C000910001023008F444C0EE
:1001F000843008F041C0482F50E005E010E00E9434
:10020000BB01F801E55FFE4F26813781482F50E0A2
:1002100005E010E00E94BB01F801E55FFE4F21837D
:100220003283482F50E005E010E00E94BB01F80146
:10023000E55FFE4F2581482F50E005E010E00E9469
:10024000BB01F801E55FFE4F2083482F50E005E039
:1002500010E00E94BB01F801E55FFE4F208531856B
:10026000482F50E005E010E00E94BB01F801E55F77
:10027000FE4F2383348325C020E030E0482F50E038
:1002800005E010E00E94BB01F801E55FFE4F21830D
:10029000328320E0482F50E005E010E00E94BB01CF
:1002A000F801E55FFE4F20832AE930E0482F50E057
:1002B00005E010E00E94BB01F801E55FFE4F2383DB
:1002C0003483009100010A950093000183953CCF8F
:1002D00000E010E0282F30E0220F331FF901EF5F1C
:1002E000FE4F0083118389910895B801222E9A014F
:1002F0004091000150E005E010E00E94BB01F801D0
:10030000E55FFE4F618372834091000150E005E09C
:1003100010E00E94BB01F801E55FFE4F2082409192
:10032000000150E005E010E00E94BB01F801E55F2C
:10033000FE4F2383348300910001063028F400919E
:10034000000103950093000100E0089500008895E6
:10035000FECF03E60DBF01E00EBFC4E6D2E00E946F
:10036000C301002311F00E94D3010E946B000E9480
:10037000A6010C94A601149F102D059F100D049F3B
:10038000002D110D089501E0089520E006D0E9F751
:100390000895259102D0E9F708952D93015010405A
:1003A000202F212B089588E690E0FC0105911491FF
:1003B000FC013296A591B491FC01349625913491BB
:1003C000422F432B19F0F901E4DF01C0DEDF06966E
:0A03D00010E08E36910748F30895FF
:0400000300000000F9
:00000001FF
