:020000020000FC
:100000000C94B3011895189518951895189518958E
:100010001895189518951895189518951895189578
:100020001895189518951895189518950C945B01C6
:100030001895189518951895189518951895189558
:100040001895189518951895189518951895189548
:100050001895189518951895189518951895189538
:10006000189518951895189526000001000000E0D5
:1000700008958A9380E000910A01002309F4C5C025
:1000800080E000910A01801708F0CAC0082F10E034
:10009000000F111FF801E050FF4F008111810F5F29
:1000A0001F4F00831183082F10E0000F111FF8016C
:1000B000E050FF4F20813181482F50E005E010E0F3
:1000C0000E94C501F801E35FFE4F018112812017F4
:1000D000310708F498C000E010E0282F30E0220F2C
:1000E000331FF901E050FF4F00831183482F50E088
:1000F00005E010E00E94C501F801E35FFE4F0381B7
:100100001481F8010995482F50E005E010E00E94A5
:10011000C501F801E35FFE4F0081013009F073C0B3
:1001200000910A01023008F444C0843008F041C054
:10013000482F50E005E010E00E94C501F801E35FA0
:10014000FE4F26813781482F50E005E010E00E94E5
:10015000C501F801E35FFE4F21833283482F50E051
:1001600005E010E00E94C501F801E35FFE4F258124
:10017000482F50E005E010E00E94C501F801E35F60
:10018000FE4F2083482F50E005E010E00E94C5019B
:10019000F801E35FFE4F20853185482F50E005E0F0
:1001A00010E00E94C501F801E35FFE4F2383348312
:1001B00025C020E030E0482F50E005E010E00E942C
:1001C000C501F801E35FFE4F2183328320E0482F11
:1001D00050E005E010E00E94C501F801E35FFE4F2A
:1001E000208327E330E0482F50E005E010E00E9434
:1001F000C501F801E35FFE4F2383348300910A01B8
:100200000A9500930A0183953CCF00E010E0282F67
:1002100030E0220F331FF901E050FF4F00831183BC
:1002200089910895B801222E9A0140910A0150E067
:1002300005E010E00E94C501F801E35FFE4F618315
:10024000728340910A0150E005E010E00E94C50170
:10025000F801E35FFE4F208240910A0150E005E083
:1002600010E00E94C501F801E35FFE4F2383348351
:1002700000910A01063028F400910A0103950093C9
:100280000A0100E00895F894009180000C7F00932B
:100290008000009181000F7E009381000091810019
:1002A0000960009381000FE0009389000FE900933B
:1002B0008800789408958A93FA93EA933A922A925E
:1002C0001A920A927A936A935A934A933A932A9388
:1002D0001A930A938FB7B098CCDE00910B0110915E
:1002E0000C010F3F2FEF120741F0EBE0F1E000812E
:1002F00011810F5F1F4F008311838FBF09911991E7
:10030000299139914991599169917991099019905F
:1003100029903990E991F9918991189500E215B1E8
:10032000102715B900E0089500E115B1102715B99F
:1003300000E00895A8DF04B1006304B94EE851E07D
:1003400021E008E813E16EDF44E951E022E008EE25
:1003500013E068DF00916F00026000936F00FFCF31
:1003600000008895FECF05E60DBF01E00EBFC6E692
:10037000D2E00E94CD01002311F00E94DD010E9415
:100380009A010E94B0010C94B001149F102D059F9A
:10039000100D049F002D110D089501E0089520E037
:1003A00006D0E9F70895259102D0E9F708952D9335
:1003B00001501040202F212B089588E690E0FC0189
:1003C00005911491FC013296A591B491FC013496EB
:1003D00025913491422F432B19F0F901E4DF01C03C
:0E03E000DEDF069610E08E36910748F3089592
:0400000300000000F9
:00000001FF
