:020000020000FC
:100000000C94AE0118951895189518951895189593
:100010001895189518951895189518951895189578
:100020001895189518951895189518950C945B01C6
:100030001895189518951895189518951895189558
:100040001895189518951895189518951895189548
:100050001895189518951895189518951895189538
:1000600018951895189518952600000100008A9398
:1000700080E000910A01002309F4C2C080E00091F1
:100080000A01801708F0C7C0082F10E0000F111FE9
:10009000F801E050FF4F008111810F5F1F4F008377
:1000A0001183082F10E0000F111FF801E050FF4FDF
:1000B00020813181482F50E005E010E00E94C0010E
:1000C000F801E35FFE4F018112812017310708F428
:1000D00095C000E010E0282F30E0220F331FF90117
:1000E000E050FF4F00831183482F50E005E010E0FF
:1000F0000E94C001F801E35FFE4F03811481F80103
:100100000995482F50E005E010E00E94C001F80179
:10011000E35FFE4F0081013009F070C000910A01D9
:10012000023008F441C0482F50E005E010E00E9482
:10013000C001F801E35FFE4F26813781482F50E070
:1001400005E010E00E94C001F801E35FFE4F21834B
:100150003283482F50E005E010E00E94C001F80112
:10016000E35FFE4F2581482F50E005E010E00E943C
:10017000C001F801E35FFE4F2083482F50E005E007
:1001800010E00E94C001F801E35FFE4F2085318539
:10019000482F50E005E010E00E94C001F801E35F45
:1001A000FE4F2383348325C020E030E0482F50E009
:1001B00005E010E00E94C001F801E35FFE4F2183DB
:1001C000328320E0482F50E005E010E00E94C0019B
:1001D000F801E35FFE4F208320E030E0482F50E03D
:1001E00005E010E00E94C001F801E35FFE4F2383A9
:1001F000348300910A010A9500930A0183953FCF49
:1002000000E010E0282F30E0220F331FF901E0500A
:10021000FF4F0083118389910895B801222E9A011E
:1002200040910A0150E005E010E00E94C001F80191
:10023000E35FFE4F6183728340910A0150E005E065
:1002400010E00E94C001F801E35FFE4F2082409160
:100250000A0150E005E010E00E94C001F801E35FF0
:10026000FE4F2383348300910A01063028F4009165
:100270000A01039500930A0100E00895F8940091A3
:1002800080000C7F00938000009181000F7E00931E
:100290008100009181000960009381000FE00093CC
:1002A00089000FE900938800789400916F00026044
:1002B00000936F0008958A93FA93EA933A922A92F0
:1002C0001A920A927A936A935A934A933A932A9388
:1002D0001A930A938FB7B098CADE00910B01109160
:1002E0000C010F3F2FEF120741F0EBE0F1E000812E
:1002F00011810F5F1F4F008311838FBF09911991E7
:10030000299139914991599169917991099019905F
:1003100029903990E991F9918991189500E215B1E8
:10032000102715B900E0089500E115B1102715B99F
:1003300000E00895A3DF04B1006304B94EE851E082
:1003400021E008E813E169DF44E951E022E008EE2A
:1003500013E063DFFFCF00008895FECF05E60DBFF9
:1003600001E00EBFC6E6D2E00E94C801002311F0F2
:100370000E94D8010E949A010E94AB010C94AB012B
:10038000149F102D059F100D049F002D110D089531
:1003900001E0089520E006D0E9F70895259102D004
:1003A000E9F708952D9301501040202F212B089537
:1003B00088E690E0FC0105911491FC013296A5912C
:1003C000B491FC01349625913491422F432B19F0BE
:1003D000F901E4DF01C0DEDF069610E08E369107FA
:0403E00048F3089541
:0400000300000000F9
:00000001FF
